:1000000094C500000C944B0F0C94200F0C94F50E2B
:100010000C94CA0E0C949F0E0C94740E0C94490E02
:100020000C941E0EB3C50000B1C50000AFC50000A2
:10003000ADC50000ABC50000A9C50000A7C5000004
:10004000A5C500000C941C11A1C500009FC50000AF
:100050009DC500009BC5000099C500000C942F159C
:1000600095C500000C94B50F0C948B0F8FC5000044
:100070008DC500008BC5000089C5000087C5000044
:1000800085C5000083C5000081C500007FC5000054
:100090007DC500007BC5000079C500000C94EB0F06
:1000A00075C5000073C5000071C500006FC5000074
:1000B0006DC500006BC5000069C5000067C5000084
:1000C00065C5000063C5000061C500005FC5000094
:1000D0005DC500005BC5000059C5000057C50000A4
:1000E00055C5000037133A1329132D133313711319
:1000F0003E13421348134C13501356135A135E13F6
:100100007113641368136C1300000000003E5B4F12
:100110005B3E3E6B4F6B3E1C3E7C3E1C183C7E3C67
:10012000181C577D571C1C5E7F5E1C00183C180075
:10013000FFE7C3E7FF0018241800FFE7DBE7FF3005
:10014000483A060E2629792926407F050507407F73
:1001500005253F5A3CE73C5A7F3E1C1C08081C1CE6
:100160003E7F14227F22145F5F005F5F06097F01DC
:100170007F006689956A606060606094A2FFA294C7
:1001800008047E040810207E201008082A1C080895
:100190001C2A08081E101010100C1E0C1E0C3038E3
:1001A0003E3830060E3E0E06000000000000005FE4
:1001B00000000007000700147F147F14242A7F2A00
:1001C00012231308646236495620500008070300C2
:1001D000001C2241000041221C002A1C7F1C2A080E
:1001E000083E080800807030000808080808000071
:1001F00060600020100804023E5149453E00427FE5
:10020000400072494949462141494D331814127F33
:100210001027454545393C4A4949314121110907D3
:100220003649494936464949291E00001400000054
:100230004034000000081422411414141414004126
:1002400022140802015909063E415D594E7C1211E3
:10025000127C7F494949363E414141227F4141411B
:100260003E7F494949417F090909013E4141517396
:100270007F0808087F00417F41002040413F017F07
:10028000081422417F404040407F021C027F7F04CF
:1002900008107F3E4141413E7F090909063E415118
:1002A000215E7F09192946264949493203017F0108
:1002B000033F4040403F1F2040201F3F4038403F09
:1002C000631408146303047804036159494D43001F
:1002D0007F4141410204081020004141417F040256
:1002E00001020440404040400003070800205454ED
:1002F00078407F28444438384444442838444428CB
:100300007F385454541800087E090218A4A49C781D
:100310007F0804047800447D40002040403D007F79
:100320001028440000417F40007C047804787C0859
:100330000404783844444438FC182424181824242D
:1003400018FC7C08040408485454542404043F4412
:10035000243C4040207C1C2040201C3C4030403C41
:1003600044281028444C9090907C4464544C4400A1
:100370000836410000007700000041360800020105
:100380000204023C2623263C1EA1A161123A4040F1
:10039000207A38545455592155557941225454786E
:1003A00042215554784020545579400C1E52721207
:1003B0003955555559395454545939555454580090
:1003C00000457C410002457D420001457C407D1294
:1003D00011127DF0282528F07C54554500205454F6
:1003E0007C547C0A097F4932494949323A444444A1
:1003F0003A324A4848303A4141217A3A42402078DC
:10040000009DA0A07D3D4242423D3D4040403D3CDC
:1004100024FF2424487E4943662B2FFC2F2BFF0901
:1004200029F620C0887E09032054547941000044F5
:100430007D413048484A32384040227A007A0A0AE0
:10044000727D0D19317D2629292F28262929292653
:1004500030484D4020380808080808080808382F98
:1004600010C8ACBA2F102834FA00007B0000081422
:100470002A142222142A14085500550055AA55AAF8
:1004800055AAFF55FF55FF000000FF00101010FF98
:1004900000141414FF001010FF00FF1010F010F0F3
:1004A000141414FC001414F700FF0000FF00FF14E4
:1004B00014F404FC141417101F10101F101F141430
:1004C000141F00101010F0000000001F101010107A
:1004D0001F10101010F010000000FF10101010106E
:1004E00010101010FF10000000FF140000FF00FFAC
:1004F00000001F10170000FC04F414141710171448
:1005000014F404F40000FF00F71414141414141469
:10051000F700F7141414171410101F101F141414DC
:10052000F4141010F010F000001F101F0000001F46
:1005300014000000FC140000F010F01010FF10FF79
:10054000141414FF141010101F00000000F010FF0E
:10055000FFFFFFFFF0F0F0F0F0FFFFFF00000000F2
:1005600000FFFF0F0F0F0F0F3844443844FC4A4A76
:100570004A347E02020606027E027E02635549412B
:10058000633844443C04407E201E2006027E020262
:1005900099A5E7A5991C2A492A1C4C7201724C3076
:1005A0004A4D4D303048784830BC625A463D3E494D
:1005B0004949007E0101017E2A2A2A2A2A44445FF1
:1005C000444440514A444040444A51400000FF01E5
:1005D00003E080FF000008086B6B083612362436F3
:1005E000060F090F06000018180000001010003058
:1005F00040FF0101001F01011E00191D1712003CE0
:100600003C3C3C0000000000000000000000000036
:1006100000000000000000000000000000000000DA
:1006200000000200000000000000000000000000C8
:1006300000000200000000000000000000000000B8
:1006400000000201000000000000000000000000A7
:100650000001060100000000000000000000000092
:100660000001060180000000000000000000000002
:1006700000010601800000000000000000000000F2
:1006800000008601000000000000000000000000E3
:1006900000008206200000000000000000000000B2
:1006A0000000830C4000000000000000000000007B
:1006B0000006C398C0000000000000000000000019
:1006C000000141F180000000000000000000000077
:1006D0000000E1F600000000000000000000000043
:1006E000000033FC000000000000000000000000DB
:1006F00000001FE0000000000000000000000000FB
:1007000000000FE0000000000000000000000000FA
:10071000000007E4000000000000000000000000EE
:1007200000001FFE000000000000000000000000AC
:10073000000010FE000000000000000000000000AB
:100740000000083F00000000000000000000000062
:10075000000003FFF800000000000000000000009F
:10076000000001FF9F0000000000000000000000EA
:10077000000001FFFFE0000000000000000000009A
:10078000000001FFFFF0000000000000000000007A
:10079000000003FFFFE00000000000000000000078
:1007A000000007FFFFE00000000000000000000064
:1007B000000007FFFC000000000000000000000037
:1007C00000000FFFE00000000000000003F0000048
:1007D00000001FFF80000000000000001FFFC0009D
:1007E00000003FFF80000000000000003FFFF0001D
:1007F00000007FFF00000000000000007FFFF0000D
:100800000003FFFF0000000000000000FFFFE00009
:10081000007FFFFF0000000000000000FFFF8000DD
:1008200003FFFFFE0000000000000001FFFC07873F
:10083000FFFFFFFE0000000000000003FFFFFFFFBE
:10084000FFFFFFFE0000000000000007FFFFFFFFAA
:10085000FFFFFFFC000000000000000FFFFFFFFF94
:10086000FFFFFFFC000000000000001FFFFFFFFF74
:10087000FFFFFFF8000000000000001FFFFFFFFF68
:10088000FFFFFFF8000000000000003FFFFFFFFF38
:10089000FFFFFFF0000000000000003FFFFFFFFF30
:1008A000FFFFFFF0000000000000003FFFFFFFFF20
:1008B000FFFFFFE0000000000000003FFFFFFFFF20
:1008C000FFFFFFE0000000000000003FFFFFFFFF10
:1008D000FFFFFFE0000000000000007FFFFFFFFFC0
:1008E000FFFFFFFC000000000000007FFFFFFFFF94
:1008F000FFFFFFFE00000000000000FFFFFFFFFF02
:10090000FFFFFFFF00000000000001FFFE00007F6E
:10091000FFFFFFFF00000000000007FFF8000000DD
:100920000000007E0000000000001FFF80000000AB
:100930000000001E0000000000007FFE000000001C
:100940000000001C000000000000FFF0000000009C
:100950000000001C000000000003FFC000000000B9
:100960000000001E000000000007FE000000000064
:100970000000007E00000000000FF00000000000FA
:10098000000003F700000000003FC000000000006E
:10099000000007E700000000007E000000000000EB
:1009A0000000000F0000000001FC0000000000003B
:1009B0000000003F0000000003F8000000000000FD
:1009C000000000380000000003F0000000000000FC
:1009D000000000000000000003C000000000000054
:1009E0000000000000000000000000000000000007
:1009F00000000000000000000000000000000000F7
:100A00000000000000000000000022002500280077
:100A10002B002E0031003400020100000501080106
:100A20000B0100000A0B02090C0D0E08070304015C
:100A300000000000000000000000000000000000B6
:100A40000000000000000000000000000000121183
:100A50001000000000000000000000000000000086
:100A6000000000000000000000002000230026001D
:100A700029002C002F0032000001000003010601B4
:100A80000901050505050705080808080202020214
:100A90000A0A08080404040401010101010101011A
:100AA0000303030303030303040707070C0C0C0CE5
:100AB0000C0C0C0C020202020606060606060606CE
:100AC0000B0B0B0B0B0B0B0B01021020200808105B
:100AD00020401020408002010201080402010102AE
:100AE0000408102040808040201008040201800487
:100AF00002018040201008040201080402010102E2
:100B000004081020408001020408102040800000EA
:100B10002100240027002A002D00300033000101AD
:100B20000000040107010A01BB1C11241FBECFEF06
:100B3000D1E2DEBFCDBF00E00CBF17E0A0E0B2E025
:100B4000E2EBFFE300E00BBF02C007900D92AC3078
:100B5000B107D9F728E0ACE0B7E001C01D92A63B91
:100B6000B207E1F715E0C5E9D5E000E006C021973E
:100B70000109802FFE010E945E1DC439D10780E06B
:100B80000807A9F70E9479150C94D71F39CA089550
:100B9000CF92DF92EF92FF920F931F93CF93DF9349
:100BA0006C017A018B01C0E0D0E0CE15DF0589F041
:100BB000D8016D918D01D601ED91FC910190F081EC
:100BC000E02DC6011995892B11F47E0102C02196F2
:100BD000ECCFC701DF91CF911F910F91FF90EF9064
:100BE000DF90CF900895FC01918D828D981761F070
:100BF000828DDF01A80FB11D5D968C91928D9F5F54
:100C00009F73928F90E008958FEF9FEF0895FC01FE
:100C1000918D828D981731F0828DE80FF11D858DB1
:100C200090E008958FEF9FEF0895FC01918D228D44
:100C3000892F90E0805C9F4F821B91098F739927C9
:100C4000089589EC97E0F1DF21E0892B09F420E099
:100C5000822F0895FC01848DDF01A80FB11DA35AD6
:100C6000BF4F2C91848D90E001968F739927848FCC
:100C7000A689B7892C93A089B1898C9180648C93C3
:100C8000938D848D981306C00288F389E02D8081AE
:100C90008F7D80830895EF92FF920F931F93CF93E0
:100CA000DF93EC0181E0888F9B8D8C8D981305C0BC
:100CB000E889F989808185FD23C0F62E0B8D10E02F
:100CC0000F5F1F4F0F731127E02E8C8DE8120BC0A2
:100CD0000FB607FCFACFE889F989808185FFF5CF47
:100CE000CE01B8DFF2CF8B8DFE01E80FF11DE35A84
:100CF000FF4FF0820B8FEA89FB898081806207C0F9
:100D0000EE89FF896083E889F98980818064808326
:100D100081E090E0DF91CF911F910F91FF90EF90D4
:100D20000895CF93DF93EC01888D8823C1F0EA8981
:100D3000FB89808185FD05C0A889B9898C9186FDD4
:100D40000EC00FB607FCF5CF808185FFF2CFA889D2
:100D5000B9898C9185FFEDCFCE017CDFE8CFDF91A3
:100D6000CF91089580E090E0892B19F06ADF81111E
:100D700025C080E090E0892B41F080E090E0892B55
:100D800021F00E94000081111CC080E090E0892BBE
:100D900041F080E090E0892B21F00E940000811159
:100DA00013C080E090E0892BA1F080E090E0892BD7
:100DB00081F00E94000081110AC008950E94000085
:100DC000D8CF0E940000E1CF0E940000EACF0C942F
:100DD0000000089508952F923F924F925F926F9274
:100DE0007F928F929F92AF92BF92CF92DF92EF92BB
:100DF000FF920F931F93CF93DF93CDB7DEB72D975D
:100E00000FB6F894DEBF0FBECDBF9D878C876A30CA
:100E1000A1F4DC0154962C9154971E968D919C91CF
:100E20001F97B8E02B9F800D911D1124EC85FD8547
:100E30009787868715861486FBC06D3009F4F8C045
:100E4000AC85BD855496BC91B983EC85FD8502883F
:100E5000F389E02DFD83EC83AC85BD8550960D9024
:100E6000BC91A02DBF83AE83EC85FD8586849784DD
:100E7000C484D58480859185C816D906C4F0AC8514
:100E8000BD8554964C915497242F30E01C968D913B
:100E90009C911D97B6E04B9F800D911D1124EC8510
:100EA000FD8595878487468941119EC0C1C0AC8568
:100EB000BD851A968D919C911B9788169906FCF614
:100EC000B981AB2EB12CC601E6E0BE9F800D911D0D
:100ED0001124181619069CF6C50123E0880F991FE6
:100EE0002A95E1F7880D991D1816190644F6AC8568
:100EF000BD8557968C91811103C0603B08F06F5FF0
:100F0000B5E06B9FB001112416011A82FB01EC19A8
:100F1000FD09F987E8879401285F3F4F3B872A87BF
:100F20003A81353049F0E885F985E20DF31DE85F37
:100F3000FE4F54915B8301C01B82240134018B81DD
:100F400080FF13C0AC85BD85ED91FC91B981B130B6
:100F500031F40480F581E02D2E813F8119C0068493
:100F6000F785E02DEE80FF801EC0EC81FD812E8193
:100F70003F81E217F307F1F0AC85BD85ED91FC915F
:100F8000B981B13059F40480F581E02D2C813D8187
:100F9000A301B1018C859D8519950CC00684F78548
:100FA000E02DEC80FD8085019501A201B6018C85C4
:100FB0009D851995EB81E695EB83FFEF6F1A7F0A0C
:100FC0004A0C5B1C2A853B856216730609F0B7CF75
:100FD0003A813F5F3A835FEF251A350ACA0CDB1C62
:100FE000363009F09DCF4BCF4AEF4203B001439F0B
:100FF000700D1124AC85BD8518964D915C911997A3
:10100000460F571F481759079CF483E0220F331FE0
:101010008A95E1F71E968D919C911F97280F391F95
:101020001F963C932E931E971D961C921E921C9702
:1010300081E090E02D960FB6F894DEBF0FBECDBFD5
:10104000DF91CF911F910F91FF90EF90DF90CF90A4
:10105000BF90AF909F908F907F906F905F904F90D8
:101060003F902F900895EF92FF920F931F93DC0112
:10107000ED91FC9111971A960D911C911B97189662
:101080002D913C9119970684F785E02D7B0140E076
:1010900050E060E070E019951F910F91FF90EF9084
:1010A00008956F927F928F929F92AF92BF92CF924C
:1010B000DF92EF92FF920F931F93CF93DF936C0118
:1010C0005A014801EB013B01620E731EC615D7059C
:1010D00074F4D601ED91FC910084F185E02D870137
:1010E0009401A501BE01C60119952196EFCFDF91AC
:1010F000CF911F910F91FF90EF90DF90CF90BF9015
:10110000AF909F908F907F906F900895EF92FF9295
:101110000F931F93DC01ED91FC91260F371F215097
:1011200031090680F781E02D78018A0119951F9118
:101130000F91FF90EF900895EF92FF920F931F93FE
:101140007801DC01ED91FC91240F351F89010150DC
:1011500011090680F781E02D9B0119951F910F91D0
:10116000FF90EF9008956F927F928F929F92AF922F
:10117000BF92CF92DF92EF92FF920F931F93CF9384
:10118000DF93EC014B015A0169013801E881F981D3
:101190000284F385E02D87011995E881F981A50185
:1011A000460D571D415051090284F385E02D9601EB
:1011B000B401CE011995E881F9810084F185E02D13
:1011C0009301A501B401CE011995E881F981C80CFC
:1011D000D91CB601615071090084F185E02D93019D
:1011E000A501CE011995DF91CF911F910F91FF902D
:1011F000EF90DF90CF90BF90AF909F908F907F90B7
:101200006F9008952F923F924F925F926F927F92CC
:101210008F929F92AF92BF92CF92DF92EF92FF9206
:101220000F931F93CF93DF9300D0CDB7DEB74C0160
:101230007B836A836A01590117019801241B350BCE
:1012400037FF03C0319521953109C5014A815B8182
:10125000841B950B97FF03C091958195910951E0EF
:1012600059838217930714F019820BC09A2D8B2D86
:101270005801092F182F9A818B81DB82CA82C92ECF
:10128000D82E8A819B81A816B9065CF49C2D8D2DE1
:101290006801092F182F9A818B81BB82AA82A92EFF
:1012A000B82E2501AA81BB814A1A5B0A38016C1845
:1012B0007D0877FE03C0719461947108720157FE36
:1012C00003C0BFEFEB1AFB0AF594E794C016D106F2
:1012D0001CF00FEF1FEF1FC001E010E01CC0D40195
:1012E000ED91FC91B9810480F581E02D9101BB2342
:1012F000C1F04A815B81B601C4011995E618F7086F
:10130000F7FE04C0C00ED11EE40CF51CEA81FB817F
:101310003196FB83EA834A815B81A416B506FCF60D
:1013200004C0A6016A817B81E7CF0F900F900F90D8
:10133000DF91CF911F910F91FF90EF90DF90CF90B1
:10134000BF90AF909F908F907F906F905F904F90E5
:101350003F902F9008950F931F93CF93DF93DC015D
:1013600055968C915597823071F0833009F1813018
:1013700009F08CC01496ED91FC911597E41BF50BC8
:10138000E21BF30B20C01496ED91FC911597CF0151
:10139000861B970BBC01615071091696ED91FC916B
:1013A0001797CF01841B950BAC01421B530B6EC0EA
:1013B0001696ED91FC911797CF01861B970BBC01F8
:1013C00061507109FA0177FD1BC116968D919C91B0
:1013D0001797681779070CF013C1F7FF04C02E0F99
:1013E0003F1FE0E0F0E014968D919C911597AF01BE
:1013F000420F531F841795071CF49C012E1B3F0BB3
:10140000121613060CF0FCC0CB0177FD079643E0E3
:10141000959587954A95E1F79695982F8827979502
:101420008795E80FF91FE05FFD4F6770772781E030
:1014300090E001C0880F6A95EAF7482F0130110546
:1014400041F088F00230110509F0DAC02E0F3F1F7D
:1014500015C02E0F3F1FE217F30709F4D1C080819A
:10146000842B8193F8CF80952E0F3F1FE217F3074F
:1014700009F4C6C0908198239193F8CFE217F3073F
:1014800009F4BEC0808184278193F8CF77FDB8C06E
:1014900014968D919C911597681779070CF0B0C040
:1014A00057FF04C0240F351F40E050E016968D9181
:1014B0009C911797FA01E20FF31F8E179F071CF4F8
:1014C0009C01241B350B121613060CF099C0A22F99
:1014D000842F86958695869590E8899F600D711D6D
:1014E0001124FB01E05FFD4F4770A9F198E0941BC8
:1014F000492F50E0EA01C05ED94F8881291790F446
:10150000421B51092FEF30E002C0359527954A95CF
:10151000E2F782230130110541F068F00230110535
:1015200089F06EC00130110519F42081822B0CC0A6
:101530000130110520F480952081822305C00230FE
:10154000110531F4208182278083A91708F458C03F
:10155000A91BE058FF4FA83048F10230110559F49B
:10156000EF018A2F988190959883C058DF4F88505B
:101570008830C0F730C081E00130110509F080E00B
:101580008195EF019A2F8883C058DF4F985098308B
:10159000D0F788EF8A0F86958695869590E8899F83
:1015A000E00DF11D1124E058FF4FA770AA2341F16F
:1015B000B0E0A85EB94F8C910130110529F038F0E8
:1015C00002301105D1F01CC09081892B18C0809584
:1015D0009081892314C088EF8A0F86958695869519
:1015E00090E8899FE00DF11D1124E058FF4FA7708E
:1015F00039F0B0E0A85EB94F8C9190818927808343
:10160000DF91CF911F910F9108950F931F93CF9367
:10161000DF93DC01FB0155968C915597823081F068
:10162000833019F1813051F514968D919C91159765
:10163000BC01641B750BAB0141505109BF0181C056
:1016400014966D917C911597CB018E1B9F0BFC011D
:1016500016968D919C911797BC01641B750BAB017D
:1016600041505109E21BF30B09C016966D917C9114
:1016700017976E1B7F0B621B730B63C057FD1CC15A
:1016800016968D919C911797481759070CF014C125
:10169000F7FF04C02E0F3F1FE0E0F0E014968D919D
:1016A0009C911597BF01620F731F861797071CF453
:1016B0009C012E1B3F0B121613060CF0FDC0CA0135
:1016C00057FD079663E0959587956A95E1F796959E
:1016D000982F882797958795E80FF91FE05FFD4FB2
:1016E0004770552781E090E001C0880F4A95EAF7DE
:1016F000482F0130110541F088F00230110509F042
:10170000DBC02E0F3F1F15C02E0F3F1FE217F30740
:1017100009F4D2C08081842B8193F8CF80952E0F5D
:101720003F1FE217F30709F4C7C0908198239193F4
:10173000F8CFE217F30709F4BFC0808184278193B3
:10174000F8CF57FDB9C014968D919C911597481705
:1017500059070CF0B1C077FF04C0260F371F60E0B7
:1017600070E016968D919C911797FB01E20FF31F85
:101770008E179F071CF49C01261B370B12161306AD
:101780000CF09AC0A22F862F86958695869590E8B4
:10179000899F400D511D1124FA01E05FFD4F6770D4
:1017A000A9F198E0961B492F50E0EA01C05ED94F9D
:1017B0008881291790F4421B51092FEF30E002C0B5
:1017C000359527954A95E2F782230130110541F0BE
:1017D00068F00230110589F06FC00130110519F46D
:1017E0002081822B0CC00130110520F480952081CE
:1017F000822305C00230110531F4208182278083C5
:10180000A91708F459C0A91BE058FF4FA83048F1A8
:101810000230110559F4EF018A2F98819095988331
:10182000C058DF4F88508830C0F731C081E00130A8
:10183000110509F080E08195EF019A2F8883C05847
:10184000DF4F98509830D0F788EF8A0F86958695AD
:10185000869560E8869FE00DF11D1124E058FF4F4A
:10186000A770AA2349F1B0E0A85EB94F8C9101306E
:10187000110529F038F002301105D9F01DC0908112
:10188000892B03C0809590818923808315C088EFC0
:101890008A0F86958695869570E8879FE00DF11DE5
:1018A0001124E058FF4FA77039F0B0E0A85EB94F9F
:1018B0008C9190818927E9CFDF91CF911F910F9172
:1018C0000895FC0177FD9AC0808591856817790796
:1018D0000CF094C057FD92C0828593854817590734
:1018E0000CF08CC08589823009F07CC084819581A0
:1018F000DC01A61BB70BBD01615071098681978180
:10190000FC01E41BF50BAF01415051090AC08130C5
:1019100041F484819581841B950BAB01BC0161501E
:1019200071092130310529F008F122303105E1F14A
:101930000895FA0157FD3796A3E0F595E795AA9526
:10194000E1F7F695FE2FEE27F795E7956E0F7F1FCF
:10195000FB01E05FFD4F4770552781E090E001C03B
:10196000880F4A95EAF79081892B3AC0FA0157FD12
:10197000379623E0F595E7952A95E1F7F695FE2F42
:10198000EE27F795E7956E0F7F1FFB01E05FFD4F98
:101990004770552781E090E001C0880F4A95EAF72B
:1019A0008095908189231CC0FA0157FD379683E00A
:1019B000F595E7958A95E1F7F695FE2FEE27F795D1
:1019C000E7956E0F7F1FFB01E05FFD4F47705527C6
:1019D00081E090E001C0880F4A95EAF7908189275D
:1019E00080830895833009F092CF86819781861B8A
:1019F000970BBA01AC014150510993CF0895089556
:101A000081E090E03091540720915307321710F491
:101A100080E090E091958195910908958091540717
:101A200090915307891730F48F5F8093540780E0BB
:101A300090E008958FEF9FEF08958091530790E015
:101A400020915407821B9109089585ED8093BC0075
:101A50008091BC0084FDFCCF1092A10708954091B5
:101A60002E07262F30E0240F311D21323105DCF402
:101A70002091A1072430C9F4FC0180E090E0861792
:101A800058F430912E072191DC01A45FB84FA30FC9
:101A9000B11D2C930196F3CF80912E07680F6093B0
:101AA0002E0780E0089581E0089582E00895CF92A6
:101AB000DF92EF92FF920F931F93CF93DF937C01FE
:101AC000262F972F8A018091A207882391F0C62F95
:101AD000D72F6E01C40ED51ECC15DD0569F06991B6
:101AE000D701ED91FC910190F081E02DC70119958E
:101AF000F3CF642F822FB3DFC801DF91CF911F9105
:101B00000F91FF90EF90DF90CF900895CF93DF93E8
:101B10001F92CDB7DEB769832091A2072223D1F0AF
:101B20002091C407203240F021E030E0FC013383F3
:101B3000228380E090E014C08091A307E82FF0E0BA
:101B4000EC55F84F998190838F5F8093A307809322
:101B5000C40704C061E0CE01019681DF81E090E01E
:101B60000F90DF91CF91089580915507909156077E
:101B7000A0915707B09158078061809355079093C3
:101B80005607A0935707B0935807089580915507BB
:101B900090915607A0915707B0915807886080939D
:101BA000550790935607A0935707B093580784EFB3
:101BB00091E0A0E0B0E08093610790936207A0936A
:101BC0006307B0936407089584E690E0A0E0B0E076
:101BD00080935D0790935E07A0935F07B0936007C3
:101BE00008958091550790915607A0915707B0919D
:101BF000580781608093550790935607A093570725
:101C0000B093580784E690E0A0E0B0E080935907D5
:101C100090935A07A0935B07B0935C0708958EE1F9
:101C200090E0A0E0B0E08093650790936607A093F2
:101C30006707B093680708950E94D31F1F920F9201
:101C40000FB60F9211240BB60F922F933F934F9321
:101C50005F936F937F938F939F93AF93BF93EF9314
:101C6000FF93E0910E02F0910F021995FF91EF9111
:101C7000BF91AF919F918F917F916F915F914F91A4
:101C80003F912F910F900BBE0F900FBE0F901F90A2
:101C900018951F920F920FB60F9211240BB60F9248
:101CA0002F933F934F935F936F937F938F939F9364
:101CB000AF93BF93EF93FF93E0910C02F0910D026D
:101CC0001995FF91EF91BF91AF919F918F917F9166
:101CD0006F915F914F913F912F910F900BBE0F909D
:101CE0000FBE0F901F9018951F920F920FB60F9274
:101CF00011240BB60F922F933F934F935F936F93E3
:101D00007F938F939F93AF93BF93EF93FF93E09154
:101D10000202F09103021995FF91EF91BF91AF91EB
:101D20009F918F917F916F915F914F913F912F91F3
:101D30000F900BBE0F900FBE0F901F9018951F9223
:101D40000F920FB60F9211240BB60F922F933F9361
:101D50004F935F936F937F938F939F93AF93BF93B3
:101D6000EF93FF93E0910002F09101021995FF912A
:101D7000EF91BF91AF919F918F917F916F915F9103
:101D80004F913F912F910F900BBE0F900FBE0F9070
:101D90001F9018951F920F920FB60F9211240BB639
:101DA0000F922F933F934F935F936F937F938F93F4
:101DB0009F93AF93BF93EF93FF93E0910A02F0914B
:101DC0000B021995FF91EF91BF91AF919F918F9168
:101DD0007F916F915F914F913F912F910F900BBE2B
:101DE0000F900FBE0F901F9018951F920F920FB675
:101DF0000F9211240BB60F922F933F934F935F9343
:101E00006F937F938F939F93AF93BF93EF93FF93C2
:101E1000E0910802F09109021995FF91EF91BF91AD
:101E2000AF919F918F917F916F915F914F913F9172
:101E30002F910F900BBE0F900FBE0F901F90189513
:101E40001F920F920FB60F9211240BB60F922F9381
:101E50003F934F935F936F937F938F939F93AF9332
:101E6000BF93EF93FF93E0910602F091070219955B
:101E7000FF91EF91BF91AF919F918F917F916F9162
:101E80005F914F913F912F910F900BBE0F900FBE1E
:101E90000F901F9018951F920F920FB60F9211245A
:101EA0000BB60F922F933F934F935F936F937F9354
:101EB0008F939F93AF93BF93EF93FF93E0910402AF
:101EC000F09105021995FF91EF91BF91AF919F910C
:101ED0008F917F916F915F914F913F912F910F90D3
:101EE0000BBE0F900FBE0F901F90189561157105D6
:101EF00079F0FB0101900020E9F73197AF01461B13
:101F0000570BDC01ED91FC910280F381E02D1994D7
:101F100080E090E008951F920F920FB60F92112467
:101F20000BB60F922F933F934F935F936F937F93D3
:101F30008F939F93AF93BF93EF93FF9389EC97E0B9
:101F40000E942A06FF91EF91BF91AF919F918F91CF
:101F50007F916F915F914F913F912F910F900BBEA9
:101F60000F900FBE0F901F9018951F920F920FB6F3
:101F70000F9211240BB60F922F938F939F93EF9391
:101F8000FF93E091D907F091DA078081E091DF07B4
:101F9000F091E00782FD12C090818091E2078F5F8F
:101FA0008F732091E307821751F0E091E207F0E090
:101FB000E753F84F958F8093E20701C08081FF912E
:101FC000EF919F918F912F910F900BBE0F900FBEAD
:101FD0000F901F9018951F920F920FB60F92112419
:101FE0000BB60F922F933F934F935F936F937F9313
:101FF0008F939F93AF93BF93EF93FF938091B9001B
:10200000887F803609F49CC068F5883209F45BC08B
:1020100090F4803109F454C038F4882309F4F6C0F0
:10202000883009F44DC0F5C0883109F44CC08032C5
:1020300009F45DC0EEC0803409F468C048F4803310
:1020400009F455C0883309F0E4C080939F07D8C0D5
:10205000803509F44FC0883509F45DC0883409F033
:10206000D8C0D6C0883909F4C7C0A8F4883709F4A5
:1020700067C038F4883609F463C0803709F460C05B
:10208000C8C0883809F4B8C0803909F45FC0803806
:1020900009F0BFC05BC0803B09F486C038F4803AC9
:1020A00009F466C0883A09F47FC0B3C0803C09F4E3
:1020B000A7C0883C09F4A4C0883B09F48AC0A9C021
:1020C00080917C0710C090919E0780919D07981782
:1020D00070F5E0919E0781E08E0F80939E07F0E0FF
:1020E000E358F84F80818093BB0085EC86C08093D5
:1020F0009F078EC0E0919E0781E08E0F80939E0720
:102100008091BB00F0E0E358F84F808390919E07E8
:1021100080919D076EC0E0919E0781E08E0F8093B5
:102120009E078091BB00F0E0E358F84F80838091D8
:10213000A00781116DC081E080937B0784EA61C0B4
:1021400083E08093A10710925207CFCF809152076E
:10215000803208F051C0E091520781E08E0F8093E9
:1021600052078091BB00F0E0EE5CF84F8083BDCF5A
:1021700085EC8093BC001092A107809152078032B9
:1021800030F4E0915207F0E0EE5CF84F108260917D
:10219000520770E0E0913007F091310782E397E059
:1021A00019951092520735C084E08093A1071092D0
:1021B0002F0710922E07E0912C07F0912D0719950B
:1021C00080912E07811105C081E080932E07109227
:1021D0000C07E0912F0781E08E0F80932F07F0E02E
:1021E000E45FF84F80818093BB0090912F0780912E
:1021F0002E07981708F479CF85E88093BC0009C0B2
:1022000085EC8093BC001092A10703C010929F0739
:102210001CDCFF91EF91BF91AF919F918F917F91C6
:102220006F915F914F913F912F910F900BBE0F9047
:102230000FBE0F901F9018951F920F920FB60F921E
:1022400011240BB60F920F931F932F933F934F932D
:102250005F936F937F938F939F93AF93BF93CF932E
:10226000DF93EF93FF93C9E5D7E000E116E08881A3
:102270009981AA81BB81181619061A061B067CF4DF
:102280000197A109B10988839983AA83BB83892B0C
:102290008A2B8B2B21F4D801ED91FC911995249672
:1022A0000E5F1F4FB7E0C936DB0709F7FF91EF91CB
:1022B000DF91CF91BF91AF919F918F917F916F915E
:1022C0005F914F913F912F911F910F910F900BBEF6
:1022D0000F900FBE0F901F9018958F929F92AF9204
:1022E000BF92CF92DF92EF92FF92CF93DF93A091B4
:1022F0007908882311F03A2F01C030E080917A08E4
:1023000090E0880F991F8859954FC0907F08D09012
:102310008008E0908108F090820840E050E0BA0127
:10232000FC01C591D49128812A2323130FC04A01AF
:102330005B012FEF821A920AA20AB20A4C155D05C0
:102340006E057F0538F4B501A401EACF342F252F9F
:10235000CB0104C030E020E080E090E0632F722FDA
:10236000DF91CF91FF90EF90DF90CF90BF90AF9033
:102370009F908F9008952091C4079091B0082132CA
:1023800008F04AC08091A1078111FCCF32E0309360
:10239000A10731E03093A0073FEF30939F071092E1
:1023A0009E0720939D07A4EAB7E04DE757E0FA01A6
:1023B0003E2F341B321718F43D913193F9CF109210
:1023C0007C0720917C07990F922B90937C0790912A
:1023D0007B07913061F410927B0790917C0790937A
:1023E000BB009091BC0093FDF8CF95EC01C095EE39
:1023F0009093BC009091A1079230E1F390919F07D8
:102400009F3F79F080919F07803241F080919F0734
:10241000803331F084E005C081E003C082E001C078
:1024200083E01092A3071092C4071092A2070895A8
:102430009091A308992339F08EBD00000DB407FEDA
:10244000FDCF8EB5089528E030E040E8E091A60881
:10245000F091A70850819091AD08909595239083B5
:10246000E091A408F091A5089091AC08542F58234E
:1024700019F05081952B03C050819095952390833E
:10248000E091A608F091A70850819091AD08952B96
:102490009083469521503109C9F60895CF93DF9373
:1024A000BC0189EC97E022DDEC0169E077E089EC82
:1024B00097E01CDD8C0F9D1FDF91CF910895CF9386
:1024C000C82F80919E088F3F51F1E091A808F091AC
:1024D000A90880819091AE08982B9083E091AA087A
:1024E000F091AB0820819091AF0890959223908352
:1024F000E091A808F091A90820819091AE089095EC
:10250000922390838C2F94DFE091A808F091A90882
:1025100090818091AE08892B8083CF91089580911E
:102520009C0891E09093A2078093B0081092A307B3
:102530001092C40760E086E698E0E8DA6C2F86E641
:1025400098E0E4DACF9117CFEF92FF920F931F93A9
:10255000CF93DF9381E2B3DF80E0B1DF8FE7AFDFBE
:1025600082E2ADDF80E0ABDF87E0A9DF80919E08EB
:102570008F3F71F1E091A808F091A90890818091B6
:10258000AE08892B8083E091AA08F091AB08908176
:102590008091AF08892B8083E091A808F091A90869
:1025A00090818091AE08809589238083C0E1D2E03C
:1025B00089913EDF86E0C031D807D1F7E091A808C5
:1025C000F091A90890818091AE08892B80832DC05D
:1025D000F090B8008CE08093B800C0E1D2E0EE2427
:1025E000E39480919C08E092A2078093B008109237
:1025F000A3071092C40760E486E698E087DA00E05B
:1026000010E0FE01E00FF11F608186E698E07EDABF
:102610000F5F1F4F00311105A1F7ADDE609686E018
:10262000C031D807F1F6F092B800DF91CF911F9139
:102630000F91FF90EF90089590E0FC013197E23107
:10264000F10508F04EC08827EE58FF4F8F4F0C94CD
:102650005E1D809180008F7703C0809180008F7D08
:1026600080938000089580918000877FF9CF84B5A2
:102670008F7702C084B58F7D84BD08958091B000AE
:102680008F7703C08091B0008F7D8093B000089554
:10269000809190008F7707C0809190008F7D03C05C
:1026A00080919000877F8093900008958091A00092
:1026B0008F7707C08091A0008F7D03C08091A0001C
:1026C000877F8093A0000895809120018F7707C0B5
:1026D000809120018F7D03C080912001877F8093AE
:1026E000200108951F93CF93DF93282F30E0F90145
:1026F000EE5DF54F8491F901E853F54FD491F9015E
:10270000EE57F54FC491CC23C1F0162F811194DF01
:10271000EC2FF0E0EE0FFF1FE85FF54FA591B491AD
:102720008FB7F894111105C09C91ED2FE095E92326
:1027300002C0EC91ED2BEC938FBFDF91CF911F91F5
:102740000895CF92DF92EF92FF920F931F93CF9352
:10275000DF93CDB7DEB7C054D1400FB6F894DEBFDB
:102760000FBECDBF2FB7F8948091C5079091C607D3
:10277000A091C707B091C8072FBF40917B08509127
:102780007C0860917D0870917E088C019D01041B7E
:10279000150B260B370BB901A801403D57406105C9
:1027A000710518F480918308B1C080937B089093E1
:1027B0007C08A0937D08B0937E0810927608109252
:1027C000750810927408109273081092720861E0F4
:1027D0008091770887DF6AEF70E080E090E007D1B2
:1027E00061E080917708C7D060E0809177087ADF58
:1027F00064E170E080E090E0FAD0F89461E08091CC
:10280000770870DF8BE990E00197F1F762E0809143
:102810007708B1D083E290E00197F1F780E05DDDC9
:10282000672B682B692B21F41092830878943BC0A6
:1028300081E053DD672B682B692BB1F38E010F5FAD
:102840001F4F6E012FEBC21A2EEFD20A780180E0E3
:1028500044DDF701608371838283938381E03DDDF2
:10286000F7016483758386839783F8E0EF0EF11C8C
:10287000EC14FD0461F7789420E030E0F801408129
:10288000518162817381C480D580E680F7804115D3
:1028900051056105710529F0C114D104E104F10469
:1028A00021F41092830880E031C0F90183E0F595AE
:1028B000E7958A95E1F7EE58F74F8081880F4C1520
:1028C0005D056E057F0508F4816080832F5F3F4FB3
:1028D000085F1F4F2832310589F62091760830E0D5
:1028E000409172088091730890E0840F911D40918F
:1028F0007408840F911D40917508840F911D9927CC
:102900002817390771F681E080938308C05CDE4F99
:102910000FB6F894DEBF0FBECDBFDF91CF911F91F0
:102920000F91FF90EF90DF90CF9008953FB7F8940C
:102930008091B2089091B308A091B408B091B50805
:1029400026B5A89B05C02F3F19F00196A11DB11D0A
:102950003FBFBA2FA92F982F8827820F911DA11D45
:10296000B11DBC01CD0142E0660F771F881F991F82
:102970004A95D1F70895CF93DF9390E0FC01E85397
:10298000F54F2491FC01EE57F54F8491882361F1B6
:1029900090E0880F991FFC01E25FF44FC591D4913C
:1029A000FC01E85FF54FA591B491611109C09FB793
:1029B000F8948881209582238883EC912E230BC084
:1029C000623061F49FB7F8943881822F8095832319
:1029D0008883EC912E2B2C939FBF06C08FB7F89461
:1029E000E8812E2B28838FBFDF91CF9108958F929E
:1029F0009F92AF92BF92CF92DF92EF92FF926B01C4
:102A00007C0194DF4B015C01C114D104E104F104A9
:102A1000E9F08CDFDC01CB0188199909AA09BB090F
:102A2000883E9340A105B10578F321E0C21AD10890
:102A3000E108F10888EE880E83E0981EA11CB11C05
:102A4000C114D104E104F10421F7DECFFF90EF902F
:102A5000DF90CF90BF90AF909F908F9008951F927E
:102A60000F920FB60F9211242F933F938F939F9342
:102A7000AF93BF938091C5079091C607A091C707F8
:102A8000B091C8073091B10823E0230F2D3720F40F
:102A90000196A11DB11D05C026E8230F0296A11DB8
:102AA000B11D2093B1088093C5079093C607A093EA
:102AB000C707B093C8078091B2089091B308A0915E
:102AC000B408B091B5080196A11DB11D8093B2085C
:102AD0009093B308A093B408B093B508BF91AF9199
:102AE0009F918F913F912F910F900FBE0F901F904C
:102AF0001895CF93DF93CDB7DEB728970FB6F8942C
:102B0000DEBF0FBECDBF789484B5826084BD84B52E
:102B1000816084BD85B5826085BD85B5816085BDD8
:102B200080916E00816080936E0010928100809190
:102B30008100826080938100809181008160809318
:102B40008100809180008160809380008091B1003D
:102B500084608093B1008091B00081608093B00068
:102B600080919100826080939100809191008160BA
:102B7000809391008091900081608093900080917B
:102B8000A10082608093A1008091A1008160809368
:102B9000A1008091A00081608093A000809121011C
:102BA00082608093210180912101816080932101C5
:102BB0008091200181608093200180917A0084605F
:102BC00080937A0080917A00826080937A0080916D
:102BD0007A00816080937A0080917A008068809387
:102BE0007A001092C100E091D907F091DA0712E063
:102BF0001083E091D507F091D6071082E091D707B6
:102C0000F091D8078FEC80831092E107E091DD0707
:102C1000F091DE0786E08083E091DB07F091DC072E
:102C2000808180618083E091DB07F091DC07808107
:102C300088608083E091DB07F091DC078081806809
:102C40008083E091DB07F091DC0780818F7D8083BA
:102C500080EE96E023DC61E08DE08DDE61E08DE0CA
:102C600041DD10939D088CE380939C0880919E0821
:102C70008F3F09F4B7C061E08091A0087CDE61E07D
:102C80008091A20878DE8091A208082E000C990B92
:102C9000FC01EE57F54FE491F0E0EE0FFF1FE85F07
:102CA000F54F259134913093A9082093A808FC0191
:102CB000E853F54FE491E093AE088091A008082E08
:102CC000000C990BFC01EE57F54FE491F0E0EE0F8C
:102CD000FF1FE85FF54F259134913093AB082093A7
:102CE000AA08FC01E853F54FE491E093AF08809106
:102CF000A30881113CC061E080919E083CDE61E048
:102D000080919F0838DE80919F08082E000C990B57
:102D1000FC01EE57F54FE491F0E0EE0FFF1FE85F86
:102D2000F54F259134913093A7082093A608FC0114
:102D3000E853F54FE491E093AD0880919E08082E8A
:102D4000000C990BFC01EE57F54FE491F0E0EE0F0B
:102D5000FF1FE85FF54F259134913093A50820932C
:102D6000A408FC01E853F54FE491E093AC0880918E
:102D7000A308882309F45BC01FB7F89480916A0701
:102D8000811123C0E7EBFAE08491EDEFFAE0949132
:102D9000E82FF0E0EE0FFF1FE25FF44FA591B49132
:102DA000EC91E92319F461E085E39CDC61E085E3C3
:102DB000E2DD8CB580618CBD8CB580648CBD61E03A
:102DC00084E3D9DD61E083E3D6DD80916A078F5F1C
:102DD00080936A071FBF8CB58C7F8CBD8DB58160D9
:102DE0008DBD25C010925407109253071092A3076F
:102DF0001092C4071092A10781E08093A00710925F
:102E00007B0761E084E16EDC61E085E16BDC809151
:102E1000B9008E7F8093B9008091B9008D7F809337
:102E2000B90088E48093B80085E48093BC0061E039
:102E30008091A108A0DD61E08091A10853DC61E0F0
:102E400070E080E090E0D3DD60E08091A1084ADC92
:102E50006AE070E080E090E0CADD61E08091A10866
:102E600041DC8EEA2CDB85ED2ADB80E828DB88EA72
:102E700026DB8FE324DB83ED22DB80E020DB80E4B4
:102E80001EDB8DE81CDB84E11ADB80E218DB80E0CE
:102E900016DB81EA14DB88EC12DB8AED10DB82E1C1
:102EA0000EDB81E80CDB8FEC0ADB89ED08DB81EFC0
:102EB00006DB8BED04DB80E402DB84EA00DB86EAE0
:102EC000FEDA8FEAFCDA80E094E0E0E1F2E0DF0194
:102ED0009C011D9221503040E1F7E12CF12C00E0E3
:102EE00010E070E8C72ED12CA12CB12CF50163E0C5
:102EF000F595E7956A95E1F7EE0DFF1DE85FF94F4F
:102F00008491950127703327A60102C055954795F6
:102F10002A95E2F7E82FF0E0E423F523EF2B71F098
:102F2000E0918408F09185080480F581E02D21E08E
:102F300030E0A801B50184E898E019955FEFA51A83
:102F4000B50A80E8A816B10489F60F5F1F4F90E11B
:102F5000E90EF11C0034110539F6F6DA62E08091D1
:102F6000770809DD80E398EFAFEFBFEF80937B0830
:102F700090937C08A0937D08B0937E0810926B0715
:102F800010926C0710926D0710926E0710926F07E7
:102F900062E082E0F0DC8FE09EE09093010280939B
:102FA000000280916A008C7F816080936A00EC9AB5
:102FB000F8948EEF9FEFAFEFBFEF80935907909398
:102FC0005A07A0935B07B0935C0780935D079093CB
:102FD0005E07A0935F07B0936007809361079093AB
:102FE0006207A0936307B09364078093650790938B
:102FF0006607A0936707B09368071092800010924D
:10300000810010928500109284008FE19EE49093DD
:10301000890080938800809181008860809381007E
:103020008091810082608093810080916F00826036
:1030300080936F00789484E690E0A0E0B0E0809305
:10304000590790935A07A0935B07B0935C0784EFEE
:1030500091E0A0E0B0E08093610790936207A093B5
:103060006307B093640756E0252E312C4091550735
:10307000509156076091570770915807E8E2F6E0C3
:1030800081919191A191B1918C019D01042315230E
:1030900026233723012B022B032B51F18C019D0199
:1030A000009510952095309540235123622373237A
:1030B00084309105A105B10509F4C5C164F48130DE
:1030C0009105A105B105C9F082309105A105B105B1
:1030D00009F460C0D3CF88309105A105B10509F48A
:1030E000FBC180319105A105B10509F4B7C1C6CF77
:1030F000A6E0E83AFA0721F6C1CF4093550750936E
:1031000056076093570770935807809377079093FB
:103110007807A0937907B0937A0780916B078F5F48
:103120008C3318F480936B071BC010926B0780914F
:103130006C078F5F8C3318F480936C0711C010926A
:103140006C0780916D078F5F883118F480936D074D
:1031500007C010926D0780916E078F5F80936E0796
:1031600080917607882331F061E08DE0BBDA109220
:10317000760706C060E08DE0B5DA81E080937607DF
:103180008091550790915607A0915707B091580725
:103190008E7FDCC3409355075093560760935707C3
:1031A000709358078093770790937807A0937907D7
:1031B000B0937A0780917507882361F08091740736
:1031C0008F5F833018F48093740702C010927407E5
:1031D00010927507D0907407E0E1F2E020E034E04F
:1031E000119221503040E1F700918E0810918F0824
:1031F00020918C0830918D08EE24E394F12C40E06E
:1032000050E060E070E084E898E00E94B30831E0AC
:10321000D31609F4E1C0D31608F45FC042E0D4121B
:1032200007C185E08093980881E090E0909397082B
:103230008093960890939508809394083092910813
:10324000209290082CE030E030939308209392086D
:103250006091700770917107809172079091730768
:1032600006D570E080E090E030D520E030E040E22C
:1032700051E495D4FCD4605D84E898E00E94EB06AC
:103280006091700770917107809172079091730738
:10329000EED4862F6AE0F2D360E3690F84E898E009
:1032A0000E94EB0662EF76E084E898E00E94760FD9
:1032B00020E030E040E251E46091700770917107C6
:1032C0008091720790917307B4D5D1D4CB016AE095
:1032D00070E0E0D360E3680FA7C081E080939808B6
:1032E00081E090E0909397088093960890939508DA
:1032F0008093940885E090E09093910880939008E3
:10330000A3E0B0E0B0939308A093920866EE76E055
:1033100084E898E00E94760F80916E071AE0612F92
:10332000ADD360E3680F84E898E00E94EB068091DB
:103330006E07612FA3D360E3690F84E898E00E94D1
:10334000EB0660EF76E084E898E00E94760F8091CB
:103350006D07612F93D360E3680F84E898E00E94C3
:10336000EB0680916D07612F89D360E3690F84E8D4
:1033700098E00E94EB0660EF76E084E898E00E9417
:10338000760F80916C07612F79D360E3680F84E832
:1033900098E00E94EB0680916C07612F6FD360E389
:1033A000690F84E898E00E94EB0660EF76E084E81D
:1033B00098E00E94760F80916B07612F5FD360E3E6
:1033C000680F84E898E00E94EB0680916B07612FFC
:1033D00055D360E3690F28C085E08093980881E0A9
:1033E00090E0909397088093960890939508809327
:1033F00094083092910820929008ECE0F0E0F0936D
:103400009308E093920861E384E898E00E94EB0659
:1034100065E384E898E00E94EB0662EF76E084E8DA
:1034200098E00E94760F67E384E898E00E94EB063C
:103430008BD88091550790915607A0915707B0916E
:1034400058078D7F84C24B7F42604093550750934D
:103450005607609357077093580708CE4093550757
:1034600050935607609357077093580780937707D8
:1034700090937807A0937907B0937A0784EF96E04A
:103480000DD8E4E2FAE08491EAECFAE01491E4E881
:10349000FAE00491002309F449C28111CDD8E02F4C
:1034A000F0E0EE0FFF1FE859F54FA591B4918C9114
:1034B000182309F43BC28BEF96E00E944E122EE1D6
:1034C00030E040E050E0209365073093660740937A
:1034D000670750936807CACD409355075093560726
:1034E00060935707709358078093770790937807F6
:1034F000A0937907B0937A0724D9882379F1809132
:1035000078088B3011F150F18551823038F5609197
:10351000720870E080E090E0D6D320E030E040E830
:1035200053E487D46B017C016091730870E080E004
:1035300090E0CBD39B01AC01C701B601C8D22DEC02
:103540003CEC4CEC5DE375D406C06091720870E011
:1035500080E090E0B8D32B013C0106C0412C512CF7
:1035600080EC682E8FE7782EECD8882399F1809133
:1035700078088B3029F070F18551823040F02AC0F4
:103580006091740870E080E090E09DD327C01091B6
:103590007408612F6F7770E080E090E096D320E0B0
:1035A00030E040E853E445D46B017C01609175083C
:1035B00070E080E090E089D39B01AC01C701B601C7
:1035C00086D22DEC3CEC4CEC5DE333D417FF06C007
:1035D000905804C060E070E080EC9FE726E636E695
:1035E00046EE5FE326D420E030E040E052E46FD2C4
:1035F0006B017C0120E030E044E752E468D24B01EB
:103600005C0120E030E048E852E4C701B6015ED238
:103610002AE939E949E95FE30CD49B01AC01C50112
:10362000B40155D24B015C0122E133E840EC5DE38B
:10363000C301B201FED39B01AC01C501B40147D265
:1036400020E030E040E05FE3F4D34B015C0120E098
:1036500030E04EE952E4E9D318160CF049C1A70155
:103660009601C701B601E5D34B015C01A3019201AC
:10367000C301B201DED36D837E838F83988721E1FE
:1036800033E243E050E4C701B601D3D329E134E883
:1036900049E252E41BD269837A838B839C8326E1BF
:1036A0003BE442E251E4C301B201C3D39B01AC014C
:1036B00069817A818B819C810AD269837A838B8329
:1036C0009C8328E436E246E65EEBC701B601B1D33F
:1036D000A3019201AED39B01AC0169817A818B81F8
:1036E0009C81F5D169837A838B839C8320EE3FE0B4
:1036F00040EE5BEBC501B4019CD39B01AC01698139
:103700007A818B819C81E3D169837A838B839C83CB
:1037100028EF37E840E65DEB6D817E818F819885EB
:1037200088D39B01AC0169817A818B819C81CFD147
:1037300069837A838B839C832CEA3DE041EA5AE3D8
:10374000C501B40176D3A301920173D39B01AC01EF
:1037500069817A818B819C81BAD169837A838B83D9
:103760009C8328EC3FE84FE55AE3C701B60161D3DB
:103770002D813E814F8158855CD39B01AC016981CD
:103780007A818B819C81A3D169837A838B839C838B
:1037900021EF3BE845E056EBC501B4014AD32D814A
:1037A0003E814F81588545D39B01AC0169817A8167
:1037B0008B819C818CD14B015C0120E030E040E5A5
:1037C00051E4C301B201E7D187FF50C020E030E0EF
:1037D00040EA52E4C701B60128D387FD47C020E084
:1037E00030E040EE52E4C701B601D5D118160CF412
:1037F000B7C0A301920160E070E080E591E466D17A
:1038000020E030E040E85EE314D32B013C0120E0EF
:1038100030E04EEB52E4C701B60158D16B017C0198
:1038200020E030E0A90101D3181644F4A701960165
:1038300060E070E088E891E449D107C020E030E022
:1038400048E851E4C701B60142D12EE33DEE40E71E
:103850005DE3EFD255D39B01AC01C301B201E9D2C4
:103860009B01AC01C501B40131D140C020E030E082
:103870004AEA52E4C301B201D8D218160CF038C09B
:1038800020E030E040EA52E4C701B601CED287FD25
:103890002FC020E030E04EEA52E4C701B6017BD1F0
:1038A000181634F120E030E04AEA52E4C301B201D4
:1038B0000DD12DEC3CEC4CEC5DE3BBD22B013C017B
:1038C000A701960160E070E08EEA92E4FFD02DEC53
:1038D0003CEC4CE45EE3ADD29B01AC01C301B20110
:1038E000A8D29B01AC01C501B401F1D04B015C0130
:1038F00020E030E040E052E4C501B401E7D026E822
:1039000038E34EE05FE395D26093700770937107E0
:103910008093720790937307809155079091560793
:10392000A0915707B0915807877F10C080E097E0BB
:103930000E944E1281E08093750780915507909107
:103940005607A0915707B09158078F7E82608093E9
:10395000550790935607A0935707B093580786CB07
:1039600020E030E04AEA52E4C301B2015ED2181608
:103970000CF48FCFBDCFE9ECF7E01382128288EE12
:1039800093E0A0E0B0E084839583A683B7832CEA1C
:1039900036E03183208325EC30E03587248724EC22
:1039A00030E03787268720EC30E0318B208B21EC0C
:1039B00030E0338B228B22EC30E0358B248B26ECED
:1039C00030E0378B268B118E128E138E148EE6E626
:1039D000F8E01382128284839583A683B7838CEBED
:1039E00096E091838083E4E8F8E01382128220E875
:1039F00030E03583248380E490E0978386833187A9
:103A0000208793878287158A1586148617861686DF
:103A100081E0848B2FEF3FEF338B228B318B208B18
:103A2000868B178A8CEC96E0918380838FEF828F50
:103A3000868F848F838F84E0858FA2E7B8E083E050
:103A400015968C9315978BE016968C931697EBEC46
:103A5000FAE0E4911796EC931797E5E8FAE0E49121
:103A60001896EC93189740E85EE360E070E01D96CE
:103A70004D935D936D937C9350970895991B79E0D6
:103A800004C0991F961708F0961B881F7A95C9F7EE
:103A900080950895AA1BBB1B51E107C0AA1FBB1F3D
:103AA000A617B70710F0A61BB70B881F991F5A95CA
:103AB000A9F780959095BC01CD010895EE0FFF1FE9
:103AC000881F8BBF0790F691E02D19945058BB27A3
:103AD000AA270ED070C161D130F066D120F031F448
:103AE0009F3F11F41EF456C10EF4E095E7FB4CC164
:103AF000E92F72D180F3BA1762077307840795071D
:103B000018F071F49EF58AC10EF4E0950B2EBA2FD1
:103B1000A02D0B01B90190010C01CA01A0011124D3
:103B2000FF27591B99F0593F50F4503E68F11A167F
:103B3000F040A22F232F342F4427585FF3CF469510
:103B400037952795A795F0405395C9F77EF41F1632
:103B5000BA0B620B730B840BBAF09150A1F0FF0FFC
:103B6000BB1F661F771F881FC2F70EC0BA0F621FE8
:103B7000731F841F48F4879577956795B795F795D8
:103B80009E3F08F0B3CF9395880F08F09927EE0F6A
:103B9000979587950895D4D008F481E008950CD0C6
:103BA0000AC102D140F0F9D030F021F45F3F19F0A2
:103BB000EBC0511134C1EEC00FD198F39923C9F372
:103BC0005523B1F3951B550BBB27AA276217730723
:103BD000840738F09F5F5F4F220F331F441FAA1FD7
:103BE000A9F333D00E2E3AF0E0E830D09150504097
:103BF000E695001CCAF729D0FE2F27D0660F771F45
:103C0000881FBB1F261737074807AB07B0E809F026
:103C1000BB0B802DBF01FF2793585F4F2AF09E3FBB
:103C2000510568F0B1C0FBC05F3FECF3983EDCF398
:103C3000869577956795B795F7959F5FC9F7880F34
:103C4000911D9695879597F90895E1E0660F771F86
:103C5000881FBB1F621773078407BA0720F0621B17
:103C6000730B840BBA0BEE1F88F7E0950895BCD058
:103C700088F09F5790F0B92F9927B751A0F0D1F055
:103C8000660F771F881F991F1AF0BA95C9F712C0DF
:103C9000B13081F0C3D0B1E00895C0C0672F782F54
:103CA0008827B85F39F0B93FCCF38695779567954B
:103CB000B395D9F73EF490958095709561957F4FB7
:103CC0008F4F9F4F0895E89409C097FB3EF490955D
:103CD0008095709561957F4F8F4F9F4F9923A9F0E5
:103CE000F92F96E9BB279395F69587957795679574
:103CF000B795F111F8CFFAF4BB0F11F460FF1BC0B8
:103D00006F5F7F4F8F4F9F4F16C0882311F096E94A
:103D100011C0772321F09EE8872F762F05C06623F8
:103D200071F096E8862F70E060E02AF09A95660FB1
:103D3000771F881FDAF7880F9695879597F908956A
:103D4000990F0008550FAA0BE0E8FEEF16161706AC
:103D5000E807F907C0F012161306E407F50798F014
:103D6000621B730B840B950B39F40A2661F0232B2D
:103D7000242B252B21F408950A2609F4A140A695A9
:103D80008FEF811D811D089597F99F6780E870E08E
:103D900060E008959FEF80EC089500240A941616C1
:103DA000170618060906089500240A941216130629
:103DB000140605060895092E0394000C11F48823B7
:103DC00052F0BB0F40F4BF2B11F460FF04C06F5FD3
:103DD0007F4F8F4F9F4F089557FD9058440F551FA9
:103DE00059F05F3F71F04795880F97FB991F61F07D
:103DF0009F3F79F087950895121613061406551FF4
:103E0000F2CF4695F1DF08C0161617061806991F5F
:103E1000F1CF86957105610508940895E894BB2754
:103E200066277727CB0197F908958ADF08F48FEF8B
:103E300008950BD0C0CFB1DF28F0B6DF18F095237E
:103E400009F0A2CFA7CF1124EACFC6DFA0F3959F38
:103E5000D1F3950F50E0551F629FF001729FBB2771
:103E6000F00DB11D639FAA27F00DB11DAA1F649F1D
:103E70006627B00DA11D661F829F2227B00DA11DD0
:103E8000621F739FB00DA11D621F839FA00D611D56
:103E9000221F749F3327A00D611D231F849F600D77
:103EA000211D822F762F6A2F11249F5750408AF0B0
:103EB000E1F088234AF0EE0FFF1FBB1F661F771F3C
:103EC000881F91505040A9F79E3F510570F05CCF7C
:103ED000A6CF5F3FECF3983EDCF386957795679528
:103EE000B795F795E7959F5FC1F7FE2B880F911D5A
:103EF0009695879597F9089511F40EF44BCF3EC02F
:103F000073DFD0F39923D9F3CEF39F57550B87FF77
:103F100043D00024A0E640EA90018058569597953A
:103F200028F4805C660F771F881F20F0261737075C
:103F3000480730F4621B730B840B202931294A2B6C
:103F4000A69517940794202531254A2758F7660F20
:103F5000771F881F20F026173707480730F4620BB9
:103F6000730B840B200D311D411DA09581F7B90104
:103F7000842F9158880F9695879508959F3F31F02B
:103F8000915020F4879577956795B795880F911D87
:103F90009695879597F9089591505040660F771F31
:103FA000881FD2F7089581E090E0F89400C0F8945B
:023FB000FFCF41
:103FB200C705C705C705C705C705C705C705C7059F
:103FC20000000000000000000000000000000000EF
:103FD20000000000000000000000000000000000DF
:103FE20000000000000000000000000000000000CF
:103FF200000000000000000000000000000000803F
:1040020080800000000000000000000000000000AE
:10401200008080C0C000000000000000000000001E
:10402200000000000000000000000000000000008E
:10403200000000000000000000000000000000007E
:10404200000000000000000000000000000000006E
:104052000000000080C0E0F0F8FCF8E00000000082
:1040620000000000000000000000000000808080CE
:10407200808000808000000000808080808000FFBF
:10408200FFFF000000008080808000008080000030
:1040920080FFFF80800080800080808080008080A0
:1040A2000000000000808000008C8E84000080F8F8
:1040B200F8F880000000000000000000000000008E
:1040C200F0F0F0F0F0F0F0F0F0F0F0F0E0E0C080AE
:1040D20000E0FCFEFFFFFF7FFFFFFFFFFF0000008D
:1040E2000000000000000000000000FEFFC7010108
:1040F200010183FFFF00007CFEC70101010183FF74
:10410200FFFF0038FEC78301010183C7FFFF0000E4
:1041120001FFFF010100FFFF0701010100007FFF16
:1041220080000000FFFF7F0000FFFFFF000001FF93
:10413200FFFF01000000000000000000000000007E
:10414200030F3F7F7FFFFFFFFFFFFFFFE7C7C78F21
:104152008F9FBFFFFFC3C0F0FFFFFFFFFFFCFCFC10
:10416200FCFCFCFCFCF8F8F0F0E0C00001030303E7
:104172000303010303000000000103030303010121
:104182000301000000010303030301010303000014
:104192000003030000000303000000000000000110
:1041A20003030303030100000001030100000003F5
:1041B20003010000000000000000000000000000F9
:1041C20000000080C0E0F0F9FFFFFFFFFF3F1F0F7C
:1041D20087C7F7FFFF1F1F3DFCF8F8F8F87C7DFF4B
:1041E200FFFFFFFFFFFFFF7F3F0F070030300000A0
:1041F20000000000000000000000000000000000BD
:1042020000000000FEFEFC000000000000000000B4
:1042120000000000000000000000000000E0C000FC
:10422200000000000000000000003030000000002C
:10423200000000000000000000000000000000007C
:1042420000C0FEFFFFFFFFFFFFFFFFFF7F7F3F1F5B
:104252000F071F7FFFFFF8F8FFFFFFFFFFFEF8E0E9
:10426200000000010000000000000000FEFE00004F
:1042720000FCFEFC0C06060EFCF80000F0F81C0E1A
:104282000606060CFFFFFF0000FEFE00000000FC19
:10429200FEFC00183C7E66E6CE84000006FFFF06A8
:1042A20006FCFEFC0C0606060000FEFE0000C0F83E
:1042B200FC4E4646464E7C7840183C76E6CECC8094
:1042C20000000000000000000000000000000000EC
:1042D2000000000001070F1F1F3F3F3F3F1F0F035A
:1042E2000000000000000000000000000F0F0000AE
:1042F200000F0F0F000000000F0F000003070E0C4D
:1043020018180C060F0F0F0000010F0E0C180C0FDF
:10431200070100040E0C180C0F070000000F0F001D
:10432200000F0F0F0000000000000F0F0000000739
:10433200070C0C181C0C060600040E0C180C0F07B8
:10434200000000000000000000000000000000006B
:10435200000000000000000000000000000000005B
:10436200000000000000000000000000000000004B
:10437200000000000000000000000000000000003B
:10438200000000000000000000000000000000002B
:10439200000000000000000000000000000000001B
:1043A200000000000000000000000000000000000B
:1043B20000000000000000000000000000000000FB
:1043C200F10DE40DC60DB40D000103070F1F3F7F71
:1043D2000080C0E0F0F8FCFE0100000002000000D6
:1043E200040000000800000010000000200000008F
:1043F20040000000800000000001000000020000F8
:10440200000400000008000000100000002000006E
:1044120000400000008000000000010000000200D7
:10442200000004000000080000001000000020004E
:1044320000004000000080000000000100000002B7
:10444200000000040000000800000010000000202E
:104452000000004000000080000000004B06C8057C
:104462001506F3050706910600000000860D570D9C
:104472001D0D0E0D000DFF0C00000000EB06C8051F
:10448200610C0209AB09050BB30851083308EA06AF
:10449200537461727400456C61707365643A2000F4
:1044A2003A002C005075736865640048494748001B
:0C44B20052656C6561736564000D0A00C2
:00000001FF
