:1000000007C1000033C1000031C100002FC1000052
:100010002DC100002BC1000029C1000027C1000034
:1000200025C1000023C1000021C100001FC1000044
:100030001DC100001BC1000019C1000017C1000054
:1000400015C10000F0C3000011C100000FC1000085
:100050000DC100000BC1000009C100003BC300003E
:1000600005C10000AAC300007FC30000FFC000005C
:10007000FDC00000FBC00000F9C00000F7C0000098
:10008000F5C00000F3C00000F1C00000EFC00000A8
:10009000EDC00000EBC00000E9C00000E7C00000B8
:1000A000E5C00000E3C00000E1C00000DFC00000C8
:1000B000DDC00000DBC00000D9C00000D7C00000D8
:1000C000D5C00000D3C00000D1C00000CFC00000E8
:1000D000CDC00000CBC00000C9C00000C7C00000F8
:1000E000C5C0000062016501540158015C019C011A
:1000F00069016D01730177017B018101850189012E
:100100009C018F019301970100002100240027002A
:100110002A002D0030003300010100000401070116
:100120000A0100002200250028002B002E003100CB
:10013000340002010000050108010B010505050559
:10014000070508080808020202020A0A080804044F
:10015000040401010101010101010303030303037D
:100160000303040707070C0C0C0C0C0C0C0C02020C
:10017000020206060606060606060B0B0B0B0B0B09
:100180000B0B010210202008081020401020408096
:10019000020102010804020101020408102040804B
:1001A00080402010080402018004020180402010D9
:1001B0000804020108040201010204081020408022
:1001C000010204081020408000000A0B02090C0DF7
:1001D0000E080703040100000000000000000000FA
:1001E000000000000000000000000000000000000F
:1001F00000000000121110000000000000000000CC
:100200000000000000000000000000000000E40406
:1002100011241FBECFEFD1E2DEBFCDBF00E00CBF87
:1002200012E0A0E0B2E0EEE3FAE000E00BBF02C0B3
:1002300007900D92AA31B107D9F722E0AAE1B2E006
:1002400001C01D92A63CB207E1F711E0C8E0D1E081
:1002500000E005C021970109802FFE01E2D3C730DD
:10026000D10780E00807B1F73CD3E7C3C9CECF93ED
:10027000C82FE5EDF1E04491EFE8F1E02491E9E4E5
:10028000F1E09491992309F46AC0442309F454C01D
:1002900050E0FA013197E231F10508F04DC08827AE
:1002A000EE58FF4F8F4FBDC3809180008F7707C0FE
:1002B000809180008F7D03C080918000877F809334
:1002C00080003AC084B58F7702C084B58F7D84BD2D
:1002D00033C08091B0008F7703C08091B0008F7DD4
:1002E0008093B00029C0809190008F7707C08091E3
:1002F00090008F7D03C080919000877F8093900055
:100300001BC08091A0008F7707C08091A0008F7DD7
:1003100003C08091A000877F8093A0000DC0309122
:1003200020013F7707C0309120013F7D03C030910D
:100330002001377F30932001E92FF0E0EE0FFF1FFF
:10034000EE5DFE4FA591B4918FB7F894EC91C11179
:1003500003C020952E2301C02E2B2C938FBFCF914D
:100360000895CF92DF92EF92FF920F931F93CF9356
:10037000DF936C017A018B01C0E0D0E0CE15DF0580
:1003800089F0D8016D918D01D601ED91FC9101901C
:10039000F081E02DC6011995892B11F47E0102C070
:1003A0002196ECCFC701DF91CF911F910F91FF9064
:1003B000EF90DF90CF900895FC01918D828D98177A
:1003C00061F0828DDF01A80FB11D5D968C91928D39
:1003D0009F5F9F73928F90E008958FEF9FEF089536
:1003E000FC01918D828D981731F0828DE80FF11DFF
:1003F000858D90E008958FEF9FEF0895FC01918D1A
:10040000228D892F90E0805C9F4F821B91098F7312
:100410009927089580E292E0F1DF21E0892B09F429
:1004200020E0822F0895FC01848DDF01A80FB11D0B
:10043000A35ABF4F2C91848D90E001968F7399271A
:10044000848FA689B7892C93A089B1898C91806407
:100450008C93938D848D981306C00288F389E02DC8
:1004600080818F7D80830895EF92FF920F931F9379
:10047000CF93DF93EC0181E0888F9B8D8C8D981357
:1004800005C0E889F989808185FD23C0F62E0B8D92
:1004900010E00F5F1F4F0F731127E02E8C8DE812B5
:1004A0000BC00FB607FCFACFE889F989808185FF78
:1004B000F5CFCE01B8DFF2CF8B8DFE01E80FF11D35
:1004C000E35AFF4FF0820B8FEA89FB8980818062BB
:1004D00007C0EE89FF896083E889F989808180649B
:1004E000808381E090E0DF91CF911F910F91FF9089
:1004F000EF900895CF93DF93EC01888D8823C1F0AE
:10050000EA89FB89808185FD05C0A889B9898C911C
:1005100086FD0EC00FB607FCF5CF808185FFF2CFB8
:10052000A889B9898C9185FFEDCFCE017CDFE8CF1A
:10053000DF91CF91089580E090E0892B19F06ADF78
:10054000811125C080E090E0892B41F080E090E0AF
:10055000892B21F00E94000081111CC080E090E0F6
:10056000892B41F080E090E0892B21F00E9400006F
:10057000811113C080E090E0892BA1F080E090E031
:10058000892B81F00E94000081110AC008950E9409
:100590000000D8CF0E940000E1CF0E940000EACF07
:1005A0000C940000089545D2E0913002F0913102A0
:1005B00082E08083E0912C02F0912D021082E09184
:1005C0002E02F0912F028FEC808310923802E0917E
:1005D0003402F091350286E08083E0913202F0919E
:1005E0003302808180618083E0913202F091330296
:1005F000808188608083E0913202F09133028081B3
:1006000080688083E0913202F091330280818F7D97
:10061000808345E050E060E172E080E292E0A1DE9C
:1006200042E050E066E172E080E292E09ADEEFE8BC
:10063000F1E02491E9E4F1E08491882399F090E0DD
:10064000880F991FFC01E85FFE4FA591B491FC0152
:10065000EE5DFE4F859194918FB7F894EC91E22B6B
:10066000EC938FBFF8948EEF9FEFAFEFBFEF8093C7
:100670001C0290931D02A0931E02B0931F021092C1
:1006800080001092810010928500109284008FE10A
:100690009EE4909389008093880080918100886017
:1006A000809381008091810082608093810080919D
:1006B0006F00826080936F00789484E690E0A0E001
:1006C000B0E080931C0290931D02A0931E02B09391
:1006D0001F0208951F920F920FB60F9211242F93AD
:1006E0003F938F939F93AF93BF938091C20290915A
:1006F000C302A091C402B091C5023091C10223E0AF
:10070000230F2D3720F40196A11DB11D05C026E849
:10071000230F0296A11DB11D2093C1028093C20236
:100720009093C302A093C402B093C5028091BD020E
:100730009091BE02A091BF02B091C0020196A11D8E
:10074000B11D8093BD029093BE02A093BF02B093EF
:10075000C002BF91AF919F918F913F912F910F90C8
:100760000FBE0F901F9018951F920F920FB60F9209
:1007700011240BB60F922F933F934F935F936F9378
:100780007F938F939F93AF93BF93EF93FF9380E2F9
:1007900092E049DEFF91EF91BF91AF919F918F91D0
:1007A0007F916F915F914F913F912F910F900BBE71
:1007B0000F900FBE0F901F9018951F920F920FB6BB
:1007C0000F9211240BB60F922F938F939F93EF9359
:1007D000FF93E0913002F09131028081E091360286
:1007E000F091370282FD12C09081809139028F5FB3
:1007F0008F7320913A02821751F0E0913902F0E0B4
:10080000E05EFD4F958F8093390201C08081FF919A
:10081000EF919F918F912F910F900BBE0F900FBE74
:100820000F901F9018951F920F920FB60F921124E0
:100830000BB60F922F933F934F935F936F937F93DA
:100840008F939F93AF93BF93EF93FF9380911C027D
:1008500090911D02A0911E02B0911F021816190658
:100860001A061B065CF50197A109B10980931C02C9
:1008700090931D02A0931E02B0931F02892B8A2B16
:100880008B2BE1F480911B02813021F4F0DC10927B
:100890001B0205C080E0EBDC81E080931B0281E05D
:1008A00080931A0284E690E0A0E0B0E080931C02FE
:1008B00090931D02A0931E02B0931F02FF91EF912F
:1008C000BF91AF919F918F917F916F915F914F9168
:1008D0003F912F910F900BBE0F900FBE0F901F9066
:1008E0001895789484B5826084BD84B5816084BD98
:1008F00085B5826085BD85B5816085BD80916E00BE
:10090000816080936E0010928100809181008260EE
:10091000809381008091810081608093810080912B
:1009200080008160809380008091B100846080931A
:10093000B1008091B00081608093B00080919100FF
:1009400082608093910080919100816080939100FA
:10095000809190008160809390008091A1008260DE
:100960008093A1008091A10081608093A10080917B
:10097000A00081608093A00080912101826080931B
:1009800021018091210181608093210180912001CA
:1009900081608093200180917A00846080937A0046
:1009A00080917A00826080937A0080917A008160E1
:1009B00080937A0080917A00806880937A00109208
:1009C000C100F2DDB8DDFECFE0E2F2E01382128278
:1009D00088EE93E0A0E0B0E084839583A683B7839C
:1009E00084E092E09183808385EC90E09587848712
:1009F00084EC90E09787868780EC90E0918B808BE9
:100A000081EC90E0938B828B82EC90E0958B848BD1
:100A100086EC90E0978B868B118E128E138E148E3F
:100A20000895EE0FFF1F881F8BBF0790F691E02DF2
:0E0A3000199481E090E0F89400C0F894FFCF94
:100A3E00000000003402B101FE01DC01F0017A0277
:0A0A4E005374617274000D0A000079
:00000001FF
